{
  "abi": [
    {
      "inputs": [
        {
          "internalType": "string",
          "name": "name",
          "type": "string"
        },
        {
          "internalType": "string",
          "name": "symbol",
          "type": "string"
        },
        {
          "internalType": "string",
          "name": "baseTokenURI",
          "type": "string"
        },
        {
          "internalType": "bytes16",
          "name": "appId",
          "type": "bytes16"
        },
        {
          "internalType": "bytes16",
          "name": "groupId",
          "type": "bytes16"
        }
      ],
      "stateMutability": "nonpayable",
      "type": "constructor"
    },
    {
      "inputs": [
        {
          "internalType": "bytes16",
          "name": "receivedAppId",
          "type": "bytes16"
        },
        {
          "internalType": "bytes16",
          "name": "expectedAppId",
          "type": "bytes16"
        }
      ],
      "name": "AppIdMismatch",
      "type": "error"
    },
    {
      "inputs": [
        {
          "internalType": "bytes16",
          "name": "receivedNamespace",
          "type": "bytes16"
        },
        {
          "internalType": "bytes16",
          "name": "expectedNamespace",
          "type": "bytes16"
        }
      ],
      "name": "NamespaceMismatch",
      "type": "error"
    },
    {
      "inputs": [],
      "name": "ZkConnectResponseIsEmpty",
      "type": "error"
    },
    {
      "anonymous": false,
      "inputs": [
        {
          "indexed": true,
          "internalType": "address",
          "name": "owner",
          "type": "address"
        },
        {
          "indexed": true,
          "internalType": "address",
          "name": "approved",
          "type": "address"
        },
        {
          "indexed": true,
          "internalType": "uint256",
          "name": "tokenId",
          "type": "uint256"
        }
      ],
      "name": "Approval",
      "type": "event"
    },
    {
      "anonymous": false,
      "inputs": [
        {
          "indexed": true,
          "internalType": "address",
          "name": "owner",
          "type": "address"
        },
        {
          "indexed": true,
          "internalType": "address",
          "name": "operator",
          "type": "address"
        },
        {
          "indexed": false,
          "internalType": "bool",
          "name": "approved",
          "type": "bool"
        }
      ],
      "name": "ApprovalForAll",
      "type": "event"
    },
    {
      "anonymous": false,
      "inputs": [
        {
          "indexed": false,
          "internalType": "string",
          "name": "baseTokenURI",
          "type": "string"
        }
      ],
      "name": "BaseTokenURIChanged",
      "type": "event"
    },
    {
      "anonymous": false,
      "inputs": [
        {
          "indexed": true,
          "internalType": "address",
          "name": "from",
          "type": "address"
        },
        {
          "indexed": true,
          "internalType": "address",
          "name": "to",
          "type": "address"
        },
        {
          "indexed": true,
          "internalType": "uint256",
          "name": "tokenId",
          "type": "uint256"
        }
      ],
      "name": "Transfer",
      "type": "event"
    },
    {
      "inputs": [],
      "name": "ADDRESSES_PROVIDER",
      "outputs": [
        {
          "internalType": "contract IAddressesProvider",
          "name": "",
          "type": "address"
        }
      ],
      "stateMutability": "view",
      "type": "function"
    },
    {
      "inputs": [],
      "name": "ZK_CONNECT_LIB_VERSION",
      "outputs": [
        {
          "internalType": "uint256",
          "name": "",
          "type": "uint256"
        }
      ],
      "stateMutability": "view",
      "type": "function"
    },
    {
      "inputs": [],
      "name": "appId",
      "outputs": [
        {
          "internalType": "bytes16",
          "name": "",
          "type": "bytes16"
        }
      ],
      "stateMutability": "view",
      "type": "function"
    },
    {
      "inputs": [
        {
          "internalType": "address",
          "name": "to",
          "type": "address"
        },
        {
          "internalType": "uint256",
          "name": "tokenId",
          "type": "uint256"
        }
      ],
      "name": "approve",
      "outputs": [],
      "stateMutability": "nonpayable",
      "type": "function"
    },
    {
      "inputs": [
        {
          "internalType": "address",
          "name": "owner",
          "type": "address"
        }
      ],
      "name": "balanceOf",
      "outputs": [
        {
          "internalType": "uint256",
          "name": "",
          "type": "uint256"
        }
      ],
      "stateMutability": "view",
      "type": "function"
    },
    {
      "inputs": [
        {
          "internalType": "bytes",
          "name": "zkConnectResponse",
          "type": "bytes"
        }
      ],
      "name": "claimWithZkConnect",
      "outputs": [],
      "stateMutability": "nonpayable",
      "type": "function"
    },
    {
      "inputs": [
        {
          "internalType": "uint256",
          "name": "tokenId",
          "type": "uint256"
        }
      ],
      "name": "getApproved",
      "outputs": [
        {
          "internalType": "address",
          "name": "",
          "type": "address"
        }
      ],
      "stateMutability": "view",
      "type": "function"
    },
    {
      "inputs": [],
      "name": "getZkConnectVersion",
      "outputs": [
        {
          "internalType": "bytes32",
          "name": "",
          "type": "bytes32"
        }
      ],
      "stateMutability": "view",
      "type": "function"
    },
    {
      "inputs": [
        {
          "internalType": "address",
          "name": "owner",
          "type": "address"
        },
        {
          "internalType": "address",
          "name": "operator",
          "type": "address"
        }
      ],
      "name": "isApprovedForAll",
      "outputs": [
        {
          "internalType": "bool",
          "name": "",
          "type": "bool"
        }
      ],
      "stateMutability": "view",
      "type": "function"
    },
    {
      "inputs": [],
      "name": "name",
      "outputs": [
        {
          "internalType": "string",
          "name": "",
          "type": "string"
        }
      ],
      "stateMutability": "view",
      "type": "function"
    },
    {
      "inputs": [
        {
          "internalType": "uint256",
          "name": "tokenId",
          "type": "uint256"
        }
      ],
      "name": "ownerOf",
      "outputs": [
        {
          "internalType": "address",
          "name": "",
          "type": "address"
        }
      ],
      "stateMutability": "view",
      "type": "function"
    },
    {
      "inputs": [
        {
          "internalType": "address",
          "name": "from",
          "type": "address"
        },
        {
          "internalType": "address",
          "name": "to",
          "type": "address"
        },
        {
          "internalType": "uint256",
          "name": "tokenId",
          "type": "uint256"
        }
      ],
      "name": "safeTransferFrom",
      "outputs": [],
      "stateMutability": "nonpayable",
      "type": "function"
    },
    {
      "inputs": [
        {
          "internalType": "address",
          "name": "from",
          "type": "address"
        },
        {
          "internalType": "address",
          "name": "to",
          "type": "address"
        },
        {
          "internalType": "uint256",
          "name": "tokenId",
          "type": "uint256"
        },
        {
          "internalType": "bytes",
          "name": "data",
          "type": "bytes"
        }
      ],
      "name": "safeTransferFrom",
      "outputs": [],
      "stateMutability": "nonpayable",
      "type": "function"
    },
    {
      "inputs": [
        {
          "internalType": "address",
          "name": "operator",
          "type": "address"
        },
        {
          "internalType": "bool",
          "name": "approved",
          "type": "bool"
        }
      ],
      "name": "setApprovalForAll",
      "outputs": [],
      "stateMutability": "nonpayable",
      "type": "function"
    },
    {
      "inputs": [
        {
          "internalType": "bytes4",
          "name": "interfaceId",
          "type": "bytes4"
        }
      ],
      "name": "supportsInterface",
      "outputs": [
        {
          "internalType": "bool",
          "name": "",
          "type": "bool"
        }
      ],
      "stateMutability": "view",
      "type": "function"
    },
    {
      "inputs": [],
      "name": "symbol",
      "outputs": [
        {
          "internalType": "string",
          "name": "",
          "type": "string"
        }
      ],
      "stateMutability": "view",
      "type": "function"
    },
    {
      "inputs": [
        {
          "internalType": "uint256",
          "name": "id",
          "type": "uint256"
        }
      ],
      "name": "tokenURI",
      "outputs": [
        {
          "internalType": "string",
          "name": "",
          "type": "string"
        }
      ],
      "stateMutability": "view",
      "type": "function"
    },
    {
      "inputs": [
        {
          "internalType": "address",
          "name": "from",
          "type": "address"
        },
        {
          "internalType": "address",
          "name": "to",
          "type": "address"
        },
        {
          "internalType": "uint256",
          "name": "tokenId",
          "type": "uint256"
        }
      ],
      "name": "transferFrom",
      "outputs": [],
      "stateMutability": "nonpayable",
      "type": "function"
    },
    {
      "inputs": [
        {
          "internalType": "bytes",
          "name": "zkConnectResponse",
          "type": "bytes"
        }
      ],
      "name": "transferWithZkConnect",
      "outputs": [],
      "stateMutability": "nonpayable",
      "type": "function"
    },
    {
      "inputs": [
        {
          "internalType": "bytes",
          "name": "zkConnectResponseEncoded",
          "type": "bytes"
        },
        {
          "components": [
            {
              "components": [
                {
                  "components": [
                    {
                      "internalType": "enum AuthType",
                      "name": "authType",
                      "type": "uint8"
                    },
                    {
                      "internalType": "bool",
                      "name": "anonMode",
                      "type": "bool"
                    },
                    {
                      "internalType": "uint256",
                      "name": "userId",
                      "type": "uint256"
                    },
                    {
                      "internalType": "bytes",
                      "name": "extraData",
                      "type": "bytes"
                    }
                  ],
                  "internalType": "struct Auth",
                  "name": "authRequest",
                  "type": "tuple"
                },
                {
                  "components": [
                    {
                      "internalType": "bytes16",
                      "name": "groupId",
                      "type": "bytes16"
                    },
                    {
                      "internalType": "bytes16",
                      "name": "groupTimestamp",
                      "type": "bytes16"
                    },
                    {
                      "internalType": "enum ClaimType",
                      "name": "claimType",
                      "type": "uint8"
                    },
                    {
                      "internalType": "uint256",
                      "name": "value",
                      "type": "uint256"
                    },
                    {
                      "internalType": "bytes",
                      "name": "extraData",
                      "type": "bytes"
                    }
                  ],
                  "internalType": "struct Claim",
                  "name": "claimRequest",
                  "type": "tuple"
                },
                {
                  "internalType": "bytes",
                  "name": "messageSignatureRequest",
                  "type": "bytes"
                }
              ],
              "internalType": "struct DataRequest[]",
              "name": "dataRequests",
              "type": "tuple[]"
            },
            {
              "internalType": "enum LogicalOperator[]",
              "name": "operators",
              "type": "uint8[]"
            }
          ],
          "internalType": "struct ZkConnectRequestContent",
          "name": "zkConnectRequestContent",
          "type": "tuple"
        }
      ],
      "name": "verify",
      "outputs": [
        {
          "components": [
            {
              "internalType": "bytes16",
              "name": "appId",
              "type": "bytes16"
            },
            {
              "internalType": "bytes16",
              "name": "namespace",
              "type": "bytes16"
            },
            {
              "internalType": "bytes32",
              "name": "version",
              "type": "bytes32"
            },
            {
              "components": [
                {
                  "internalType": "bytes16",
                  "name": "groupId",
                  "type": "bytes16"
                },
                {
                  "internalType": "bytes16",
                  "name": "groupTimestamp",
                  "type": "bytes16"
                },
                {
                  "internalType": "enum ClaimType",
                  "name": "claimType",
                  "type": "uint8"
                },
                {
                  "internalType": "uint256",
                  "name": "value",
                  "type": "uint256"
                },
                {
                  "internalType": "bytes",
                  "name": "extraData",
                  "type": "bytes"
                },
                {
                  "internalType": "uint256",
                  "name": "proofId",
                  "type": "uint256"
                }
              ],
              "internalType": "struct VerifiedClaim[]",
              "name": "verifiedClaims",
              "type": "tuple[]"
            },
            {
              "components": [
                {
                  "internalType": "enum AuthType",
                  "name": "authType",
                  "type": "uint8"
                },
                {
                  "internalType": "bool",
                  "name": "anonMode",
                  "type": "bool"
                },
                {
                  "internalType": "uint256",
                  "name": "userId",
                  "type": "uint256"
                },
                {
                  "internalType": "bytes",
                  "name": "extraData",
                  "type": "bytes"
                },
                {
                  "internalType": "uint256",
                  "name": "proofId",
                  "type": "uint256"
                }
              ],
              "internalType": "struct VerifiedAuth[]",
              "name": "verifiedAuths",
              "type": "tuple[]"
            },
            {
              "internalType": "bytes[]",
              "name": "signedMessages",
              "type": "bytes[]"
            }
          ],
          "internalType": "struct ZkConnectVerifiedResult",
          "name": "",
          "type": "tuple"
        }
      ],
      "stateMutability": "nonpayable",
      "type": "function"
    },
    {
      "inputs": [
        {
          "components": [
            {
              "internalType": "bytes16",
              "name": "appId",
              "type": "bytes16"
            },
            {
              "internalType": "bytes16",
              "name": "namespace",
              "type": "bytes16"
            },
            {
              "internalType": "bytes32",
              "name": "version",
              "type": "bytes32"
            },
            {
              "components": [
                {
                  "components": [
                    {
                      "internalType": "bytes16",
                      "name": "groupId",
                      "type": "bytes16"
                    },
                    {
                      "internalType": "bytes16",
                      "name": "groupTimestamp",
                      "type": "bytes16"
                    },
                    {
                      "internalType": "enum ClaimType",
                      "name": "claimType",
                      "type": "uint8"
                    },
                    {
                      "internalType": "uint256",
                      "name": "value",
                      "type": "uint256"
                    },
                    {
                      "internalType": "bytes",
                      "name": "extraData",
                      "type": "bytes"
                    }
                  ],
                  "internalType": "struct Claim",
                  "name": "claim",
                  "type": "tuple"
                },
                {
                  "components": [
                    {
                      "internalType": "enum AuthType",
                      "name": "authType",
                      "type": "uint8"
                    },
                    {
                      "internalType": "bool",
                      "name": "anonMode",
                      "type": "bool"
                    },
                    {
                      "internalType": "uint256",
                      "name": "userId",
                      "type": "uint256"
                    },
                    {
                      "internalType": "bytes",
                      "name": "extraData",
                      "type": "bytes"
                    }
                  ],
                  "internalType": "struct Auth",
                  "name": "auth",
                  "type": "tuple"
                },
                {
                  "internalType": "bytes",
                  "name": "signedMessage",
                  "type": "bytes"
                },
                {
                  "internalType": "bytes32",
                  "name": "provingScheme",
                  "type": "bytes32"
                },
                {
                  "internalType": "bytes",
                  "name": "proofData",
                  "type": "bytes"
                },
                {
                  "internalType": "bytes",
                  "name": "extraData",
                  "type": "bytes"
                }
              ],
              "internalType": "struct ZkConnectProof[]",
              "name": "proofs",
              "type": "tuple[]"
            }
          ],
          "internalType": "struct ZkConnectResponse",
          "name": "zkConnectResponse",
          "type": "tuple"
        },
        {
          "components": [
            {
              "components": [
                {
                  "components": [
                    {
                      "internalType": "enum AuthType",
                      "name": "authType",
                      "type": "uint8"
                    },
                    {
                      "internalType": "bool",
                      "name": "anonMode",
                      "type": "bool"
                    },
                    {
                      "internalType": "uint256",
                      "name": "userId",
                      "type": "uint256"
                    },
                    {
                      "internalType": "bytes",
                      "name": "extraData",
                      "type": "bytes"
                    }
                  ],
                  "internalType": "struct Auth",
                  "name": "authRequest",
                  "type": "tuple"
                },
                {
                  "components": [
                    {
                      "internalType": "bytes16",
                      "name": "groupId",
                      "type": "bytes16"
                    },
                    {
                      "internalType": "bytes16",
                      "name": "groupTimestamp",
                      "type": "bytes16"
                    },
                    {
                      "internalType": "enum ClaimType",
                      "name": "claimType",
                      "type": "uint8"
                    },
                    {
                      "internalType": "uint256",
                      "name": "value",
                      "type": "uint256"
                    },
                    {
                      "internalType": "bytes",
                      "name": "extraData",
                      "type": "bytes"
                    }
                  ],
                  "internalType": "struct Claim",
                  "name": "claimRequest",
                  "type": "tuple"
                },
                {
                  "internalType": "bytes",
                  "name": "messageSignatureRequest",
                  "type": "bytes"
                }
              ],
              "internalType": "struct DataRequest[]",
              "name": "dataRequests",
              "type": "tuple[]"
            },
            {
              "internalType": "enum LogicalOperator[]",
              "name": "operators",
              "type": "uint8[]"
            }
          ],
          "internalType": "struct ZkConnectRequestContent",
          "name": "zkConnectRequestContent",
          "type": "tuple"
        },
        {
          "internalType": "bytes16",
          "name": "namespace",
          "type": "bytes16"
        }
      ],
      "name": "verify",
      "outputs": [
        {
          "components": [
            {
              "internalType": "bytes16",
              "name": "appId",
              "type": "bytes16"
            },
            {
              "internalType": "bytes16",
              "name": "namespace",
              "type": "bytes16"
            },
            {
              "internalType": "bytes32",
              "name": "version",
              "type": "bytes32"
            },
            {
              "components": [
                {
                  "internalType": "bytes16",
                  "name": "groupId",
                  "type": "bytes16"
                },
                {
                  "internalType": "bytes16",
                  "name": "groupTimestamp",
                  "type": "bytes16"
                },
                {
                  "internalType": "enum ClaimType",
                  "name": "claimType",
                  "type": "uint8"
                },
                {
                  "internalType": "uint256",
                  "name": "value",
                  "type": "uint256"
                },
                {
                  "internalType": "bytes",
                  "name": "extraData",
                  "type": "bytes"
                },
                {
                  "internalType": "uint256",
                  "name": "proofId",
                  "type": "uint256"
                }
              ],
              "internalType": "struct VerifiedClaim[]",
              "name": "verifiedClaims",
              "type": "tuple[]"
            },
            {
              "components": [
                {
                  "internalType": "enum AuthType",
                  "name": "authType",
                  "type": "uint8"
                },
                {
                  "internalType": "bool",
                  "name": "anonMode",
                  "type": "bool"
                },
                {
                  "internalType": "uint256",
                  "name": "userId",
                  "type": "uint256"
                },
                {
                  "internalType": "bytes",
                  "name": "extraData",
                  "type": "bytes"
                },
                {
                  "internalType": "uint256",
                  "name": "proofId",
                  "type": "uint256"
                }
              ],
              "internalType": "struct VerifiedAuth[]",
              "name": "verifiedAuths",
              "type": "tuple[]"
            },
            {
              "internalType": "bytes[]",
              "name": "signedMessages",
              "type": "bytes[]"
            }
          ],
          "internalType": "struct ZkConnectVerifiedResult",
          "name": "",
          "type": "tuple"
        }
      ],
      "stateMutability": "nonpayable",
      "type": "function"
    },
    {
      "inputs": [
        {
          "internalType": "bytes",
          "name": "zkConnectResponseEncoded",
          "type": "bytes"
        }
      ],
      "name": "verify",
      "outputs": [
        {
          "components": [
            {
              "internalType": "bytes16",
              "name": "appId",
              "type": "bytes16"
            },
            {
              "internalType": "bytes16",
              "name": "namespace",
              "type": "bytes16"
            },
            {
              "internalType": "bytes32",
              "name": "version",
              "type": "bytes32"
            },
            {
              "components": [
                {
                  "internalType": "bytes16",
                  "name": "groupId",
                  "type": "bytes16"
                },
                {
                  "internalType": "bytes16",
                  "name": "groupTimestamp",
                  "type": "bytes16"
                },
                {
                  "internalType": "enum ClaimType",
                  "name": "claimType",
                  "type": "uint8"
                },
                {
                  "internalType": "uint256",
                  "name": "value",
                  "type": "uint256"
                },
                {
                  "internalType": "bytes",
                  "name": "extraData",
                  "type": "bytes"
                },
                {
                  "internalType": "uint256",
                  "name": "proofId",
                  "type": "uint256"
                }
              ],
              "internalType": "struct VerifiedClaim[]",
              "name": "verifiedClaims",
              "type": "tuple[]"
            },
            {
              "components": [
                {
                  "internalType": "enum AuthType",
                  "name": "authType",
                  "type": "uint8"
                },
                {
                  "internalType": "bool",
                  "name": "anonMode",
                  "type": "bool"
                },
                {
                  "internalType": "uint256",
                  "name": "userId",
                  "type": "uint256"
                },
                {
                  "internalType": "bytes",
                  "name": "extraData",
                  "type": "bytes"
                },
                {
                  "internalType": "uint256",
                  "name": "proofId",
                  "type": "uint256"
                }
              ],
              "internalType": "struct VerifiedAuth[]",
              "name": "verifiedAuths",
              "type": "tuple[]"
            },
            {
              "internalType": "bytes[]",
              "name": "signedMessages",
              "type": "bytes[]"
            }
          ],
          "internalType": "struct ZkConnectVerifiedResult",
          "name": "",
          "type": "tuple"
        }
      ],
      "stateMutability": "nonpayable",
      "type": "function"
    },
    {
      "inputs": [
        {
          "internalType": "bytes",
          "name": "zkConnectResponseEncoded",
          "type": "bytes"
        },
        {
          "components": [
            {
              "components": [
                {
                  "components": [
                    {
                      "internalType": "enum AuthType",
                      "name": "authType",
                      "type": "uint8"
                    },
                    {
                      "internalType": "bool",
                      "name": "anonMode",
                      "type": "bool"
                    },
                    {
                      "internalType": "uint256",
                      "name": "userId",
                      "type": "uint256"
                    },
                    {
                      "internalType": "bytes",
                      "name": "extraData",
                      "type": "bytes"
                    }
                  ],
                  "internalType": "struct Auth",
                  "name": "authRequest",
                  "type": "tuple"
                },
                {
                  "components": [
                    {
                      "internalType": "bytes16",
                      "name": "groupId",
                      "type": "bytes16"
                    },
                    {
                      "internalType": "bytes16",
                      "name": "groupTimestamp",
                      "type": "bytes16"
                    },
                    {
                      "internalType": "enum ClaimType",
                      "name": "claimType",
                      "type": "uint8"
                    },
                    {
                      "internalType": "uint256",
                      "name": "value",
                      "type": "uint256"
                    },
                    {
                      "internalType": "bytes",
                      "name": "extraData",
                      "type": "bytes"
                    }
                  ],
                  "internalType": "struct Claim",
                  "name": "claimRequest",
                  "type": "tuple"
                },
                {
                  "internalType": "bytes",
                  "name": "messageSignatureRequest",
                  "type": "bytes"
                }
              ],
              "internalType": "struct DataRequest[]",
              "name": "dataRequests",
              "type": "tuple[]"
            },
            {
              "internalType": "enum LogicalOperator[]",
              "name": "operators",
              "type": "uint8[]"
            }
          ],
          "internalType": "struct ZkConnectRequestContent",
          "name": "zkConnectRequestContent",
          "type": "tuple"
        },
        {
          "internalType": "bytes16",
          "name": "namespace",
          "type": "bytes16"
        }
      ],
      "name": "verify",
      "outputs": [
        {
          "components": [
            {
              "internalType": "bytes16",
              "name": "appId",
              "type": "bytes16"
            },
            {
              "internalType": "bytes16",
              "name": "namespace",
              "type": "bytes16"
            },
            {
              "internalType": "bytes32",
              "name": "version",
              "type": "bytes32"
            },
            {
              "components": [
                {
                  "internalType": "bytes16",
                  "name": "groupId",
                  "type": "bytes16"
                },
                {
                  "internalType": "bytes16",
                  "name": "groupTimestamp",
                  "type": "bytes16"
                },
                {
                  "internalType": "enum ClaimType",
                  "name": "claimType",
                  "type": "uint8"
                },
                {
                  "internalType": "uint256",
                  "name": "value",
                  "type": "uint256"
                },
                {
                  "internalType": "bytes",
                  "name": "extraData",
                  "type": "bytes"
                },
                {
                  "internalType": "uint256",
                  "name": "proofId",
                  "type": "uint256"
                }
              ],
              "internalType": "struct VerifiedClaim[]",
              "name": "verifiedClaims",
              "type": "tuple[]"
            },
            {
              "components": [
                {
                  "internalType": "enum AuthType",
                  "name": "authType",
                  "type": "uint8"
                },
                {
                  "internalType": "bool",
                  "name": "anonMode",
                  "type": "bool"
                },
                {
                  "internalType": "uint256",
                  "name": "userId",
                  "type": "uint256"
                },
                {
                  "internalType": "bytes",
                  "name": "extraData",
                  "type": "bytes"
                },
                {
                  "internalType": "uint256",
                  "name": "proofId",
                  "type": "uint256"
                }
              ],
              "internalType": "struct VerifiedAuth[]",
              "name": "verifiedAuths",
              "type": "tuple[]"
            },
            {
              "internalType": "bytes[]",
              "name": "signedMessages",
              "type": "bytes[]"
            }
          ],
          "internalType": "struct ZkConnectVerifiedResult",
          "name": "",
          "type": "tuple"
        }
      ],
      "stateMutability": "nonpayable",
      "type": "function"
    }
  ],
  "bytecode": {
    "object": "0x60a0806040523462000caa576200598c80380380916200002082856200102d565b833981019060a08183031262000caa5780516001600160401b03811162000caa57826200004f91830162001076565b60208201516001600160401b03811162000caa57836200007191840162001076565b604083015190936001600160401b03821162000caa576200009491840162001076565b91620000b16080620000a960608401620010d1565b9201620010d1565b825190926001600160401b038211620005f5578190620000d36000546200122d565b601f811162000fec575b50602090601f831160011462000f745760009262000f68575b50508160011b916000199060031b1c1916176000555b83516001600160401b038111620005f5576200012a6001546200122d565b601f811162000f15575b506020601f821160011462000ea557819293949560009262000e99575b50508160011b916000199060031b1c1916176001555b733340ac0cafb3ae34ddd53dba0d7344c1cf3efe056080818152600780546001600160801b0319169390911c9290921790915560408051908101906001600160401b03821181831017620005f557620002009260209260405260118252703d35a1b7b73732b1ba2b32b934b334b2b960791b83830152604051808095819463349f642f60e11b8352866004840152602483019062001206565b03915afa90811562000db75760009162000e50575b50600680546001600160a01b0319166001600160a01b03929092169190911790556040516338de608760e21b81526001600160801b0319909116600482015260008160248173__$e9ef01c02331ac050e210f08990e489368$__5af490811562000db75760009162000e08575b50604051636a1c338160e01b81526001600482015260008160248173__$4411f09a9ff980e362e6542040afcba2ef$__5af490811562000db75760009162000dc3575b5060408051639ceb817d60e01b81526004810182905283516001600160801b03199081166044830152602085015116606482015290830151909290600781101562000662576084840152606081015160a48401526080015160a060c4840152620003349060e484019062001206565b8281036003190160248401528151916005831015620006625762000386826080606087959460009787965260208101511515602085015260408101516040850152015191816060820152019062001206565b038173__$328a7afcc2d125d5a32bab9c2b7f58dbc2$__5af490811562000db75760009162000b2c575b508051805190680100000000000000008211620005f5576008548260085580831062000a75575b50600860009081526000805160206200594c83398151915292916020015b8282106200071c576020850151805187916001600160401b038211620005f557680100000000000000008211620005f55760209060095483600955808410620006ca575b5001600960005260206000208260051c9060005b828110620006785750601f19938085169003806200060b575b50508351929150506001600160401b038211620005f5576200048a600a546200122d565b601f811162000596575b50602090601f83116001146200051857509181620004f0926000805160206200596c833981519152946000916200050c575b508160011b916000199060031b1c191617600a555b60405191829160208352602083019062001206565b0390a16040516146179081620013158239608051816116830152f35b905082015185620004c6565b821690600a60005260206000209160005b8181106200057d5750926000805160206200596c833981519152949260019282620004f0961062000563575b5050811b01600a55620004db565b84015160001960f88460031b161c19169055858062000555565b9192602060018192868901518155019401920162000529565b600a600052620005e3907fc65a7bb8d6351c1cf70c95a316cc6a92839c986682d98bc35f958f4883f9d2a8601f850160051c81019160208610620005ea575b601f0160051c01906200126a565b8362000494565b9091508190620005d5565b634e487b7160e01b600052604160045260246000fd5b9260009360005b818110620006295750505001558280808062000466565b90919485516002811015620006625762000657602091846001949060031b60ff811b9283911b169119161790565b960192910162000612565b634e487b7160e01b600052602160045260246000fd5b6000805b60208110620006935750828201556001016200044d565b9490815160028110156200066257620006c0602091886001949060031b60ff811b9283911b169119161790565b920195016200067c565b620006fa90600960005283600020601f80870160051c8201928188168062000701575b500160051c01906200126a565b8462000439565b60001990818601918254918a0360031b1c16905589620006ed565b8051805180519060058210156200066257606091875460ff61ff006020850151151560081b1692169061ffff19161717875560408101516001880155015180519060018060401b038211620005f55781906200078b826200078160028b01546200122d565b60028b01620012d6565b602090601f8311600114620009fe57600092620009f2575b50508160011b916000199060031b1c19161760028601555b6020810151805160801c60018060801b031960208301511617600387015560408101519060078210156200066257608091600488019060ff8019835416911617905560608101516005880155015180519060018060401b038211620005f55762000838826200082e60068a01546200122d565b60068a01620012d6565b602090601f83116001146200097a576040939291600091836200096e575b50508160011b916000199060031b1c19161760068701555b01518051906001600160401b038211620005f557620008a0826200089660078901546200122d565b60078901620012d6565b602090601f8311600114620008f3579282600893602093600196600092620008e7575b5050600019600383901b1c191690851b1760078801555b01940191019092620003f5565b015190503880620008c3565b906007870160005260206000209160005b601f198516811062000955575083602093600196938793600897601f198116106200093b575b505050811b016007880155620008da565b015160001960f88460031b161c191690553880806200092a565b9192602060018192868501518155019401920162000904565b01519050388062000856565b906006880160005260206000209160005b601f1985168110620009d9575091839160019360409695601f19811610620009bf575b505050811b0160068701556200086e565b015160001960f88460031b161c19169055388080620009ae565b919260206001819286850151815501940192016200098b565b015190503880620007a3565b9250600288016000526020600020906000935b601f198416851062000a59576001945083601f1981161062000a3f575b505050811b016002860155620007bb565b015160001960f88460031b161c1916905538808062000a2e565b8181015183556020948501946001909301929091019062000a11565b6001600160fd1b03818116820362000b16578316830362000b165760086000526000805160206200594c833981519152600384901b81015b8260031b8201811062000ac2575050620003d7565b806000600892556000600182015562000ade6002820162001283565b60006003820155600060048201556000600582015562000b016006820162001283565b62000b0f6007820162001283565b0162000aad565b634e487b7160e01b600052601160045260246000fd5b90503d806000833e62000b4081836200102d565b602082828101031262000caa578151916001600160401b03831162000caa576040838201838301031262000caa5760408051939084016001600160401b03811185821017620005f557604052818101516001600160401b03811162000caa57838301601f828486010101121562000caa5780828401015162000bc281620011ee565b9162000bd260405193846200102d565b8183526020830186860160208460051b84888a010101011162000caa576020828688010101905b60208460051b84888a01010101821062000caf575050509085525081810160200151906001600160401b03821162000caa5782010190828101601f8301121562000caa5781519162000c4b83620011ee565b9362000c5b60405195866200102d565b83855260208086019460051b8301019201821162000caa57602001915b81831062000c8f57505050602082015238620003b0565b8251600281101562000caa5781526020928301920162000c78565b600080fd5b81516001600160401b03811162000caa576060888801850182018a8a0103601f19011262000caa57604051916001600160401b036060840190811190841117620005f5576060830160405288880185018201602001516001600160401b03811162000caa5762000d2e908b8b01908a8c01880185010160200162001176565b835288880185018201604001516001600160401b03811162000caa5762000d64908b8b01908a8c018801850101602001620010e7565b60208401528888018501820160600151906001600160401b03821162000caa5760209362000da48b868096958f968b8f8499860195010101010162001076565b6040820152815201920191905062000bf9565b6040513d6000823e3d90fd5b90503d806000833e62000dd781836200102d565b810160208282031262000caa5781516001600160401b03811162000caa5762000e01920162001176565b38620002c5565b3d9150816000823e62000e1c82826200102d565b602081838101031262000caa5780516001600160401b03811162000caa5762000e499282019101620010e7565b3862000282565b90506020813d60201162000e90575b8162000e6e602093836200102d565b8101031262000caa57516001600160a01b038116810362000caa573862000215565b3d915062000e5f565b01519050388062000151565b600160005260206000209060005b601f198416811062000efc575060019394959683601f1981161062000ee2575b505050811b0160015562000167565b015160001960f88460031b161c1916905538808062000ed3565b9091602060018192858b01518155019301910162000eb3565b600160005262000f61907fb10e2d527612073b26eecdfd717e6a320cf44b4afac2b0732d9fcbe2b7fa0cf6601f840160051c81019160208510620005ea57601f0160051c01906200126a565b3862000134565b015190503880620000f6565b60008080526000805160206200592c8339815191529350601f198516905b81811062000fd3575090846001959493921062000fb9575b505050811b016000556200010c565b015160001960f88460031b161c1916905538808062000faa565b9293602060018192878601518155019501930162000f92565b6000805262001026906000805160206200592c833981519152601f850160051c81019160208610620005ea57601f0160051c01906200126a565b38620000dd565b601f909101601f19168101906001600160401b03821190821017620005f557604052565b60005b838110620010655750506000910152565b818101518382015260200162001054565b81601f8201121562000caa5780516001600160401b038111620005f55760405192620010ad601f8301601f1916602001856200102d565b8184526020828401011162000caa57620010ce916020808501910162001051565b90565b51906001600160801b03198216820362000caa57565b91909160a08184031262000caa57604051906001600160401b039060a0830182811184821017620005f55760405282946200112282620010d1565b84526200113260208301620010d1565b60208501526040820151600781101562000caa57604085015260608201516060850152608082015192831162000caa5760809262001171920162001076565b910152565b91909160808184031262000caa57604051906001600160401b03906080830182811184821017620005f55760405282948151600581101562000caa5784526020820151801515810362000caa57602085015260408201516040850152606082015192831162000caa5760609262001171920162001076565b6001600160401b038111620005f55760051b60200190565b90602091620012218151809281855285808601910162001051565b601f01601f1916010190565b90600182811c921680156200125f575b60208310146200124957565b634e487b7160e01b600052602260045260246000fd5b91607f16916200123d565b81811062001276575050565b600081556001016200126a565b6200128f81546200122d565b90816200129a575050565b81601f60009311600114620012ae5750555b565b81835260208320620012cc91601f0160051c8101906001016200126a565b8160208120915555565b9190601f8111620012e657505050565b620012ac926000526020600020906020601f840160051c83019310620005ea57601f0160051c01906200126a56fe608080604052600436101561001357600080fd5b60003560e01c90816301ffc9a7146116a7575080630542975c1461163857806306fdde0314611577578063081812fc1461153b578063095ea7b31461133057806323b872dd1461130c57806342842e0e146112a35780635f64d5f4146112005780636352211e146111a657806370a08231146110b7578063790fb2df1461104757806380afdea814610fe65780638407c1d614610d5457806386e01f7814610d1a5780638e760afe14610c9f57806395d89b4114610b84578063a22cb46514610a50578063b88d4fde146109e1578063c87b56dd146108c3578063d3b12a37146106d7578063deff7b5214610272578063e985e9c5146101f05763ef19bc461461011c57600080fd5b346101d75760007ffffffffffffffffffffffffffffffffffffffffffffffffffffffffffffffffc3601126101d7576004602073ffffffffffffffffffffffffffffffffffffffff60065416604051928380927f414772760000000000000000000000000000000000000000000000000000000082525afa80156101e4576000906101ad575b602090604051908152f35b506020813d82116101dc575b816101c660209383611910565b810103126101d757602090516101a2565b600080fd5b3d91506101b9565b6040513d6000823e3d90fd5b346101d75760407ffffffffffffffffffffffffffffffffffffffffffffffffffffffffffffffffc3601126101d7576102276117fa565b61022f61181d565b9073ffffffffffffffffffffffffffffffffffffffff809116600052600560205260406000209116600052602052602060ff604060002054166040519015158152f35b346101d75760607ffffffffffffffffffffffffffffffffffffffffffffffffffffffffffffffffc3601126101d75760043567ffffffffffffffff81116101d7576102c190369060040161198b565b60243567ffffffffffffffff81116101d7576102e1903690600401611b28565b6102e9611a56565b916102f261273c565b508051156106ad5780518101906020818303126101d75760208101519067ffffffffffffffff82116101d757016080818303126101d75760405191610336836118a0565b61034260208301612780565b835261035060408301612780565b602084015260608201516040840152608082015167ffffffffffffffff81116101d75760208201603f8285010112156101d7576020818401015190610394826119d2565b936103a26040519586611910565b82855260208501906020850160408560051b8584010101116101d757604083820101915b60408560051b858401010183106103fb576103f76103eb8b8b8b8b6060820152613408565b60405191829182611d44565b0390f35b82519067ffffffffffffffff82116101d75760c07fffffffffffffffffffffffffffffffffffffffffffffffffffffffffffffffe08387860101890301126101d7576040519161044a836118bc565b60408187860101015167ffffffffffffffff81116101d75760a07fffffffffffffffffffffffffffffffffffffffffffffffffffffffffffffffe082848a890101018b0301126101d757604051906104a1826118f4565b6104b3604082858b8a01010101612780565b82526104c7606082858b8a01010101612780565b6020830152608081848a89010101015160078110156101d75760408301528588018301810160a0810151606084015260c001519067ffffffffffffffff82116101d75760406105229260208d0192868c8b01010101016127ad565b6080820152835260608187860101015167ffffffffffffffff81116101d75760807fffffffffffffffffffffffffffffffffffffffffffffffffffffffffffffffe082848a890101018b0301126101d75760405190610580826118a0565b604081848a89010101015160058110156101d75782526105a8606082858b8a010101016127ef565b6020830152858801830181016080810151604084015260a001519067ffffffffffffffff82116101d75760406105ea9260208d0192868c8b01010101016127ad565b6060820152602084015260808187860101015167ffffffffffffffff81116101d75761062390604060208b0191848a89010101016127ad565b6040840152838601810160a0810151606085015260c0015167ffffffffffffffff81116101d75761066190604060208b0191848a89010101016127ad565b608084015260e0818786010101519167ffffffffffffffff83116101d75760409361069b60209493868695868e01928c8b010101016127ad565b60a082015281520193019290506103c6565b60046040517fdb3d87f7000000000000000000000000000000000000000000000000000000008152fd5b346101d7576020807ffffffffffffffffffffffffffffffffffffffffffffffffffffffffffffffffc3601126101d75760043567ffffffffffffffff81116101d75761072a61074191369060040161198b565b610732613af3565b9061073b61273c565b506127fc565b6040610785608073ffffffffffffffffffffffffffffffffffffffff61077c61076d60a0870151614514565b51878082518301019101614550565b16930151614514565b510151918115610866576002906107c86107c285600052600260205273ffffffffffffffffffffffffffffffffffffffff60406000205416151590565b1561457c565b6107f86107c285600052600260205273ffffffffffffffffffffffffffffffffffffffff60406000205416151590565b826000526003815260406000206001815401905583600052526040600020817fffffffffffffffffffffffff000000000000000000000000000000000000000082541617905560007fddf252ad1be2c89b69c2b068fc378daa952ba7f163c4a11628f55a4df523b3ef8180a4005b606490604051907f08c379a000000000000000000000000000000000000000000000000000000000825280600483015260248201527f4552433732313a206d696e7420746f20746865207a65726f20616464726573736044820152fd5b346101d7576020807ffffffffffffffffffffffffffffffffffffffffffffffffffffffffffffffffc3601126101d75760405190600082600a54916109078361202b565b928383526001908582821691826000146109a3575050600114610946575b5061093292500383611910565b6103f76040519282849384528301906117b7565b849150600a6000527fc65a7bb8d6351c1cf70c95a316cc6a92839c986682d98bc35f958f4883f9d2a8906000915b85831061098b575050610932935082010185610925565b80548389018501528794508693909201918101610974565b7fffffffffffffffffffffffffffffffffffffffffffffffffffffffffffffff00168582015261093295151560051b85010192508791506109259050565b346101d75760807ffffffffffffffffffffffffffffffffffffffffffffffffffffffffffffffffc3601126101d757610a186117fa565b610a2061181d565b6064359167ffffffffffffffff83116101d757610a44610a4e93369060040161198b565b916044359161221a565b005b346101d75760407ffffffffffffffffffffffffffffffffffffffffffffffffffffffffffffffffc3601126101d757610a876117fa565b602435908115158092036101d75773ffffffffffffffffffffffffffffffffffffffff1690813314610b265733600052600560205260406000208260005260205260406000207fffffffffffffffffffffffffffffffffffffffffffffffffffffffffffffff0081541660ff83161790556040519081527f17307eab39ab6107e8899845ad3d59bd9653f200f220920489ca2b5937696c3160203392a3005b60646040517f08c379a000000000000000000000000000000000000000000000000000000000815260206004820152601960248201527f4552433732313a20617070726f766520746f2063616c6c6572000000000000006044820152fd5b346101d75760007ffffffffffffffffffffffffffffffffffffffffffffffffffffffffffffffffc3601126101d75760405160006001805490610bc68261202b565b80855291818116908115610c5a5750600114610c01575b6103f784610bed81860382611910565b6040519182916020835260208301906117b7565b600081815292507fb10e2d527612073b26eecdfd717e6a320cf44b4afac2b0732d9fcbe2b7fa0cf65b828410610c42575050508101602001610bed82610bdd565b80546020858701810191909152909301928101610c2a565b7fffffffffffffffffffffffffffffffffffffffffffffffffffffffffffffff001660208087019190915292151560051b85019092019250610bed9150839050610bdd565b346101d75760207ffffffffffffffffffffffffffffffffffffffffffffffffffffffffffffffffc3601126101d75760043567ffffffffffffffff81116101d7576103eb610cf46103f792369060040161198b565b610cfc61273c565b5060405190610d0a826118d8565b60608252606060208301526127fc565b346101d75760007ffffffffffffffffffffffffffffffffffffffffffffffffffffffffffffffffc3601126101d757602060405160018152f35b346101d7577ffffffffffffffffffffffffffffffffffffffffffffffffffffffffffffffffc6060813601126101d7576004359067ffffffffffffffff82116101d75760809082360301126101d75760405190610db0826118a0565b610dbc81600401611a85565b8252610dca60248201611a85565b602083015260448101356040830152606481013567ffffffffffffffff81116101d7573660238284010112156101d75760048183010135610e0a816119d2565b92610e186040519485611910565b818452602084013660248460051b8685010101116101d757602484830101905b60248460051b86850101018210610e85578686606082015260243567ffffffffffffffff81116101d7576103f791610e776103eb923690600401611b28565b610e7f611a56565b91613408565b81359067ffffffffffffffff82116101d75760c07fffffffffffffffffffffffffffffffffffffffffffffffffffffffffffffffdc8388870101360301126101d75760405191610ed4836118bc565b60248188870101013567ffffffffffffffff81116101d757610f009060243691848b8a01010101611ab2565b835260448188870101013567ffffffffffffffff81116101d757610f2e9060243691848b8a010101016119ea565b602084015267ffffffffffffffff606482898801010135116101d757610f6136868901830160648101350160240161198b565b604084015284870181016084810135606085015260a4013567ffffffffffffffff81116101d757610f9c9060243691848b8a0101010161198b565b608084015260c4818887010101359167ffffffffffffffff83116101d757602493610fd46020949386869536928d8c0101010161198b565b60a08201528152019201919050610e38565b346101d75760007ffffffffffffffffffffffffffffffffffffffffffffffffffffffffffffffffc3601126101d757602060075460801b7fffffffffffffffffffffffffffffffff0000000000000000000000000000000060405191168152f35b346101d75760407ffffffffffffffffffffffffffffffffffffffffffffffffffffffffffffffffc3601126101d75767ffffffffffffffff6004358181116101d75761109790369060040161198b565b906024359081116101d7576103f7916107326103eb923690600401611b28565b346101d75760207ffffffffffffffffffffffffffffffffffffffffffffffffffffffffffffffffc3601126101d75773ffffffffffffffffffffffffffffffffffffffff6111036117fa565b1680156111225760005260036020526020604060002054604051908152f35b60846040517f08c379a000000000000000000000000000000000000000000000000000000000815260206004820152602960248201527f4552433732313a2061646472657373207a65726f206973206e6f74206120766160448201527f6c6964206f776e657200000000000000000000000000000000000000000000006064820152fd5b346101d75760207ffffffffffffffffffffffffffffffffffffffffffffffffffffffffffffffffc3601126101d75760206111e2600435611ff9565b73ffffffffffffffffffffffffffffffffffffffff60405191168152f35b346101d75760207ffffffffffffffffffffffffffffffffffffffffffffffffffffffffffffffffc3601126101d75760043567ffffffffffffffff81116101d75761125561072a610a4e92369060040161198b565b6040611291608073ffffffffffffffffffffffffffffffffffffffff61077c61128160a0870151614514565b5160208082518301019101614550565b5101519061129e82611ff9565b6123d0565b346101d7576112b136611840565b60405191602083019383851067ffffffffffffffff8611176112dd57610a4e946040526000845261221a565b7f4e487b7100000000000000000000000000000000000000000000000000000000600052604160045260246000fd5b346101d757610a4e61131d36611840565b9161129e61132b84336122ca565b61218f565b346101d75760407ffffffffffffffffffffffffffffffffffffffffffffffffffffffffffffffffc3601126101d7576113676117fa565b6024359073ffffffffffffffffffffffffffffffffffffffff808061138b85611ff9565b169216918083146114b757803314908115611492575b501561140e578260005260046020526040600020827fffffffffffffffffffffffff00000000000000000000000000000000000000008254161790556113e683611ff9565b167f8c5be1e5ebec7d5bd14f71427d1e84f3dd0314c0f7b2291e5b200ac8c7c3b925600080a4005b60846040517f08c379a000000000000000000000000000000000000000000000000000000000815260206004820152603d60248201527f4552433732313a20617070726f76652063616c6c6572206973206e6f7420746f60448201527f6b656e206f776e6572206f7220617070726f76656420666f7220616c6c0000006064820152fd5b9050600052600560205260406000203360005260205260ff60406000205416846113a1565b60846040517f08c379a000000000000000000000000000000000000000000000000000000000815260206004820152602160248201527f4552433732313a20617070726f76616c20746f2063757272656e74206f776e6560448201527f72000000000000000000000000000000000000000000000000000000000000006064820152fd5b346101d75760207ffffffffffffffffffffffffffffffffffffffffffffffffffffffffffffffffc3601126101d75760206111e2600435612133565b346101d75760007ffffffffffffffffffffffffffffffffffffffffffffffffffffffffffffffffc3601126101d757604051600080546115b68161202b565b80845290600190818116908115610c5a57506001146115df576103f784610bed81860382611910565b600080805292507f290decd9548b62a8d60345a988386fc84ba6bc95484008f6362f93160ef3e5635b828410611620575050508101602001610bed82610bdd565b80546020858701810191909152909301928101611608565b346101d75760007ffffffffffffffffffffffffffffffffffffffffffffffffffffffffffffffffc3601126101d757602060405173ffffffffffffffffffffffffffffffffffffffff7f0000000000000000000000000000000000000000000000000000000000000000168152f35b346101d75760207ffffffffffffffffffffffffffffffffffffffffffffffffffffffffffffffffc3601126101d757600435907fffffffff0000000000000000000000000000000000000000000000000000000082168092036101d757817f80ac58cd000000000000000000000000000000000000000000000000000000006020931490811561176a575b8115611740575b5015158152f35b7f01ffc9a70000000000000000000000000000000000000000000000000000000091501483611739565b7f5b5e139f0000000000000000000000000000000000000000000000000000000081149150611732565b60005b8381106117a75750506000910152565b8181015183820152602001611797565b907fffffffffffffffffffffffffffffffffffffffffffffffffffffffffffffffe0601f6020936117f381518092818752878088019101611794565b0116010190565b6004359073ffffffffffffffffffffffffffffffffffffffff821682036101d757565b6024359073ffffffffffffffffffffffffffffffffffffffff821682036101d757565b7ffffffffffffffffffffffffffffffffffffffffffffffffffffffffffffffffc60609101126101d75773ffffffffffffffffffffffffffffffffffffffff9060043582811681036101d7579160243590811681036101d7579060443590565b6080810190811067ffffffffffffffff8211176112dd57604052565b60c0810190811067ffffffffffffffff8211176112dd57604052565b6040810190811067ffffffffffffffff8211176112dd57604052565b60a0810190811067ffffffffffffffff8211176112dd57604052565b90601f7fffffffffffffffffffffffffffffffffffffffffffffffffffffffffffffffe0910116810190811067ffffffffffffffff8211176112dd57604052565b67ffffffffffffffff81116112dd57601f017fffffffffffffffffffffffffffffffffffffffffffffffffffffffffffffffe01660200190565b81601f820112156101d7578035906119a282611951565b926119b06040519485611910565b828452602083830101116101d757816000926020809301838601378301015290565b67ffffffffffffffff81116112dd5760051b60200190565b91906080838203126101d75760405190611a03826118a0565b8193803560058110156101d7578352602081013580151581036101d75760208401526040810135604084015260608101359167ffffffffffffffff83116101d757606092611a51920161198b565b910152565b604435907fffffffffffffffffffffffffffffffff00000000000000000000000000000000821682036101d757565b35907fffffffffffffffffffffffffffffffff00000000000000000000000000000000821682036101d757565b919060a0838203126101d75760405190611acb826118f4565b8193611ad681611a85565b8352611ae460208201611a85565b6020840152604081013560078110156101d75760408401526060810135606084015260808101359167ffffffffffffffff83116101d757608092611a51920161198b565b91909160409081818503126101d757815167ffffffffffffffff94818401868111838210176112dd578452819583358181116101d75784019382601f860112156101d757843594611b78866119d2565b90611b8588519283611910565b868252602096878084019160051b830101918683116101d757888101915b838310611c1e57505050508452848101359182116101d7570181601f820112156101d757803590611bdf611bd6836119d2565b96519687611910565b818652848087019260051b8201019283116101d7578401905b828210611c06575050500152565b813560028110156101d7578152908401908401611bf8565b82358781116101d7578201606091827fffffffffffffffffffffffffffffffffffffffffffffffffffffffffffffffe0838c0301126101d7578c51928084018481108b821117611ccd578e528c8301358a81116101d7578b8e611c83928601016119ea565b84528d8301358a81116101d7578b8e611c9e92860101611ab2565b8d850152820135928984116101d7578d611cbe8c8f80978197010161198b565b90820152815201920191611ba3565b602460007f4e487b710000000000000000000000000000000000000000000000000000000081526041600452fd5b906007821015611d085752565b7f4e487b7100000000000000000000000000000000000000000000000000000000600052602160045260246000fd5b906005821015611d085752565b90602080835260e08301907fffffffffffffffffffffffffffffffff000000000000000000000000000000009384845116828201528482850151169260409384830152838501519460609586840152858101519560c097608093898587015288518091526101009187838801938360051b8901019a01926000915b8c848410611efa5750505050505082820151957fffffffffffffffffffffffffffffffffffffffffffffffffffffffffffffffe09760a0948987830301868801528851928383528883019189808660051b8601019b01956000945b868610611e8c575050505050505050015194848285030191015283519182815281810182808560051b8401019601946000925b858410611e5e575050505050505090565b909192939495968580611e7b838686600196030188528b516117b7565b990194019401929594939190611e4d565b909192939495969c9a9b8c808f838f888f93611ede908d83948b60019b030190525194611eba858751611d37565b868601511515878601528c8601518d8601528a86015190808c8701528501906117b7565b9301519101529f0196019601949695939291909c9b9a9c611e1a565b99808c8e899f839f9c9a9e8a9f8f600198999a9b9c7fffffffffffffffffffffffffffffffffffffffffffffffffffffffffffffff00611f5b92611f759603018c5251958a87511686528a8888015116888701528087015190860190611cfb565b80850151908401528b84015190808d8501528301906117b7565b9160a0809101519101529b0193019301919392909a949699989a611dbf565b15611f9b57565b60646040517f08c379a000000000000000000000000000000000000000000000000000000000815260206004820152601860248201527f4552433732313a20696e76616c696420746f6b656e20494400000000000000006044820152fd5b600052600260205273ffffffffffffffffffffffffffffffffffffffff60406000205416612028811515611f94565b90565b90600182811c92168015612074575b602083101461204557565b7f4e487b7100000000000000000000000000000000000000000000000000000000600052602260045260246000fd5b91607f169161203a565b906000929180549161208f8361202b565b9182825260019384811690816000146120f157506001146120b1575b50505050565b90919394506000526020928360002092846000945b8386106120dd5750505050010190388080806120ab565b8054858701830152940193859082016120c6565b91505060209495507fffffffffffffffffffffffffffffffffffffffffffffffffffffffffffffff009193501683830152151560051b010190388080806120ab565b61216861216382600052600260205273ffffffffffffffffffffffffffffffffffffffff60406000205416151590565b611f94565b600052600460205273ffffffffffffffffffffffffffffffffffffffff6040600020541690565b1561219657565b60846040517f08c379a000000000000000000000000000000000000000000000000000000000815260206004820152602d60248201527f4552433732313a2063616c6c6572206973206e6f7420746f6b656e206f776e6560448201527f72206f7220617070726f766564000000000000000000000000000000000000006064820152fd5b9061223e93929161222e61132b84336122ca565b6122398383836123d0565b612554565b1561224557565b6040517f08c379a000000000000000000000000000000000000000000000000000000000815260206004820152603260248201527f4552433732313a207472616e7366657220746f206e6f6e20455243373231526560448201527f63656976657220696d706c656d656e74657200000000000000000000000000006064820152608490fd5b9073ffffffffffffffffffffffffffffffffffffffff80806122eb84611ff9565b1693169183831493841561231e575b508315612308575b50505090565b61231491929350612133565b1614388080612302565b909350600052600560205260406000208260005260205260ff6040600020541692386122fa565b1561234c57565b60846040517f08c379a000000000000000000000000000000000000000000000000000000000815260206004820152602560248201527f4552433732313a207472616e736665722066726f6d20696e636f72726563742060448201527f6f776e65720000000000000000000000000000000000000000000000000000006064820152fd5b90612405916123de84611ff9565b9173ffffffffffffffffffffffffffffffffffffffff938493848094169485911614612345565b169182156124d157816124229161241b86611ff9565b1614612345565b7fddf252ad1be2c89b69c2b068fc378daa952ba7f163c4a11628f55a4df523b3ef60008481526004602052604081207fffffffffffffffffffffffff0000000000000000000000000000000000000000908181541690558382526003602052604082207fffffffffffffffffffffffffffffffffffffffffffffffffffffffffffffffff81540190558482526040822060018154019055858252600260205284604083209182541617905580a4565b60846040517f08c379a0000000000000000000000000000000000000000000000000000000008152602060048201526024808201527f4552433732313a207472616e7366657220746f20746865207a65726f2061646460448201527f72657373000000000000000000000000000000000000000000000000000000006064820152fd5b9293600093909291803b15612731579484916125d596604051809481937f150b7a02000000000000000000000000000000000000000000000000000000009788845233600485015273ffffffffffffffffffffffffffffffffffffffff80921660248501526044840152608060648401528260209b8c9760848301906117b7565b0393165af18491816126d5575b506126ac575050503d6000146126a4573d6125fc81611951565b9061260a6040519283611910565b81528091833d92013e5b805191826126a1576040517f08c379a000000000000000000000000000000000000000000000000000000000815260206004820152603260248201527f4552433732313a207472616e7366657220746f206e6f6e20455243373231526560448201527f63656976657220696d706c656d656e74657200000000000000000000000000006064820152608490fd5b01fd5b506060612614565b7fffffffff00000000000000000000000000000000000000000000000000000000161492509050565b9091508581813d831161272a575b6126ed8183611910565b8101031261272657517fffffffff00000000000000000000000000000000000000000000000000000000811681036127265790386125e2565b8480fd5b503d6126e3565b505050915050600190565b6040519060c0820182811067ffffffffffffffff8211176112dd57604052606060a08360008152600060208201526000604082015282808201528260808201520152565b51907fffffffffffffffffffffffffffffffff00000000000000000000000000000000821682036101d757565b81601f820112156101d75780516127c381611951565b926127d16040519485611910565b818452602082840101116101d7576120289160208085019101611794565b519081151582036101d757565b9061280561273c565b508151156106ad5781518201916020818403126101d75760208101519067ffffffffffffffff82116101d75701906080828403126101d7576040519261284a846118a0565b61285660208401612780565b845261286460408401612780565b602085015260608301516040850152608083015167ffffffffffffffff81116101d75760208201603f8286010112156101d75760208185010151906128a8826119d2565b946128b66040519687611910565b82865260208601906020850160408560051b8584010101116101d757604083820101915b60408560051b858401010183106130c0575050505050506060830191825261290061273c565b507fffffffffffffffffffffffffffffffff00000000000000000000000000000000908184511660075460801b908382168103613065575050816020850151167fb8e2054f8a912367e38a22ce773328ff0000000000000000000000000000000080820361302e575050906040939173ffffffffffffffffffffffffffffffffffffffff600654169385519586947f6e2ed80800000000000000000000000000000000000000000000000000000000865281600487015260c48601948082511660448801526020820151166064870152015160848501525191608060a4850152825180915260e4840190602060e48260051b8701019401916000905b828210612f7a57505050507ffffffffffffffffffffffffffffffffffffffffffffffffffffffffffffffffc83830301602484015260408201908051916040845282518091526060840190602060608260051b8701019401916000905b828210612ef45750505050602001519160208183039101526020808351928381520192019060005b818110612ed1575050509181600081819503925af19081156101e457600091612aa8575090565b903d908181843e612ab98284611910565b6020838381010312612ece5782519267ffffffffffffffff8411612eca5760c08482018483010312612eca5760405193612af2856118bc565b612afd818301612780565b8552612b0d602082840101612780565b6020860152818101604081810151908701526060015167ffffffffffffffff8111612cd757848301601f8284860101011215612cd75780828401015190612b53826119d2565b91612b616040519384611910565b808352602083019187860160208360051b83888a0101010111612dc9576020818688010101925b60208360051b83888a010101018410612dcd575050505060608601526080818301015167ffffffffffffffff8111612cd757848301601f8284860101011215612cd75780828401015190612bdb826119d2565b91612be96040519384611910565b808352602083019187860160208360051b83888a0101010111612dc9576020818688010101925b60208360051b83888a010101018410612cdb5750505050608086015260a081830101519067ffffffffffffffff8211612cd757820101838201601f82011215612cd357805192612c5f846119d2565b94612c6d6040519687611910565b84865260208087019560051b840101938181018511612cd35760208401955b858710612ca2575050505050505060a082015290565b865167ffffffffffffffff811161272657602091612cc8839283878701918a01016127ad565b815201960195612c8c565b8280fd5b8380fd5b835167ffffffffffffffff8111612dc55760a07fffffffffffffffffffffffffffffffffffffffffffffffffffffffffffffffe082858a8c0101018c8b01030112612dc55760405190612d2d826118f4565b602081858a8c01010101516005811015612dc1578252612d55604082868b8d010101016127ef565b602083015288880184018101606081015160408401526080015167ffffffffffffffff8111612dc157926020939260a0859493878f8e612da58f92988a809a8401918787878701010101016127ad565b6060870152010101015160808201528152019401939050612c10565b8a80fd5b8880fd5b8680fd5b835167ffffffffffffffff8111612dc55760c07fffffffffffffffffffffffffffffffffffffffffffffffffffffffffffffffe082858a8c0101018c8b01030112612dc55760405190612e1f826118bc565b612e31602082868b8d01010101612780565b8252612e45604082868b8d01010101612780565b6020830152606081858a8c01010101516007811015612dc1576040830152888801840181016080810151606084015260a0015167ffffffffffffffff8111612dc157926020939260c0859493878f8e612eae8f92988a809a8401918787878701010101016127ad565b6080870152010101015160a08201528152019401939050612b88565b5080fd5b80fd5b9193509160208082612ee660019488516133fb565b019401910191859392612a81565b9193948697506020612f68827fffffffffffffffffffffffffffffffffffffffffffffffffffffffffffffffa0600195979a8495030186528951906040612f57612f4784516060855260608501906133c1565b868501518482038886015261335a565b9201519060408184039101526117b7565b97019201920188969594939192612a59565b919394602061301d827fffffffffffffffffffffffffffffffffffffffffffffffffffffffffffffff1c600195979a849503018652895161300a612fee612fdc612fcc845160c080885287019061335a565b87850151868203898801526133c1565b604084015185820360408701526117b7565b60608301516060850152608083015184820360808601526117b7565b9160a080920151918184039101526117b7565b9701920192018795949391926129fc565b60449250604051917fc8c4233200000000000000000000000000000000000000000000000000000000835260048301526024820152fd5b6040517f327493b10000000000000000000000000000000000000000000000000000000081527fffffffffffffffffffffffffffffffff00000000000000000000000000000000918216600482015291166024820152604490fd5b82519067ffffffffffffffff82116101d75760c07fffffffffffffffffffffffffffffffffffffffffffffffffffffffffffffffe08387860101890301126101d7576040519161310f836118bc565b60408187860101015167ffffffffffffffff81116101d75760a07fffffffffffffffffffffffffffffffffffffffffffffffffffffffffffffffe082848a890101018b0301126101d75760405190613166826118f4565b613178604082858b8a01010101612780565b825261318c606082858b8a01010101612780565b6020830152608081848a89010101015160078110156101d75760408301528588018301810160a0810151606084015260c001519067ffffffffffffffff82116101d75760406131e79260208d0192868c8b01010101016127ad565b6080820152835260608187860101015167ffffffffffffffff81116101d75781878601010160807fffffffffffffffffffffffffffffffffffffffffffffffffffffffffffffffe0828b0301126101d75760405190613245826118a0565b604081015160058110156101d7578252613261606082016127ef565b60208301526080810151604083015260a08101519067ffffffffffffffff82116101d75760406132979260208d019201016127ad565b6060820152602084015260808187860101015167ffffffffffffffff81116101d7576132d090604060208b0191848a89010101016127ad565b6040840152838601810160a0810151606085015260c0015167ffffffffffffffff81116101d75761330e90604060208b0191848a89010101016127ad565b608084015260e0818786010101519167ffffffffffffffff83116101d75760409361334860209493868695868e01928c8b010101016127ad565b60a082015281520193019290506128da565b9060a06080612028937fffffffffffffffffffffffffffffffff0000000000000000000000000000000080825116855260208201511660208501526133a760408201516040860190611cfb565b6060810151606085015201519181608082015201906117b7565b9060806060612028936133d5848251611d37565b6020810151151560208501526040810151604085015201519181606082015201906117b7565b906002821015611d085752565b909161341261273c565b507fffffffffffffffffffffffffffffffff00000000000000000000000000000000928383511660075460801b9085821681036130655750506020830191848351168582168103613a9857505091929073ffffffffffffffffffffffffffffffffffffffff600654169260606040519586947f6e2ed8080000000000000000000000000000000000000000000000000000000086526040600487015260c48601948183511660448801525116606486015260408101516084860152015191608060a4850152825180915260e4840190602060e48260051b8701019401916000905b828210613a3557505050507ffffffffffffffffffffffffffffffffffffffffffffffffffffffffffffffffc83830301602484015260408201908051916040845282518091526060840190602060608260051b8701019401916000905b8282106139d05750505050602001519160208183039101526020808351928381520192019060005b8181106139ad575050509181600081819503925af19081156101e45760009161359f575090565b903d908181843e6135b08284611910565b6020838381010312612ece5782519267ffffffffffffffff8411612eca5760c08482018483010312612eca57604051936135e9856118bc565b6135f4818301612780565b8552613604602082840101612780565b6020860152818101604081810151908701526060015167ffffffffffffffff8111612cd757848301601f8284860101011215612cd7578082840101519061364a826119d2565b916136586040519384611910565b808352602083019187860160208360051b83888a0101010111612dc9576020818688010101925b60208360051b83888a0101010184106138b0575050505060608601526080818301015167ffffffffffffffff8111612cd757848301601f8284860101011215612cd757808284010151906136d2826119d2565b916136e06040519384611910565b808352602083019187860160208360051b83888a0101010111612dc9576020818688010101925b60208360051b83888a0101010184106137ca5750505050608086015260a081830101519067ffffffffffffffff8211612cd757820101838201601f82011215612cd357805192613756846119d2565b946137646040519687611910565b84865260208087019560051b840101938181018511612cd35760208401955b858710613799575050505050505060a082015290565b865167ffffffffffffffff8111612726576020916137bf839283878701918a01016127ad565b815201960195613783565b835167ffffffffffffffff8111612dc55760a07fffffffffffffffffffffffffffffffffffffffffffffffffffffffffffffffe082858a8c0101018c8b01030112612dc5576040519061381c826118f4565b602081858a8c01010101516005811015612dc1578252613844604082868b8d010101016127ef565b602083015288880184018101606081015160408401526080015167ffffffffffffffff8111612dc157926020939260a0859493878f8e6138948f92988a809a8401918787878701010101016127ad565b6060870152010101015160808201528152019401939050613707565b835167ffffffffffffffff8111612dc55760c07fffffffffffffffffffffffffffffffffffffffffffffffffffffffffffffffe082858a8c0101018c8b01030112612dc55760405190613902826118bc565b613914602082868b8d01010101612780565b8252613928604082868b8d01010101612780565b6020830152606081858a8c01010101516007811015612dc1576040830152888801840181016080810151606084015260a0015167ffffffffffffffff8111612dc157926020939260c0859493878f8e6139918f92988a809a8401918787878701010101016127ad565b6080870152010101015160a0820152815201940193905061367f565b91935091602080826139c260019488516133fb565b019401910191859392613578565b9193948697506020613a23827fffffffffffffffffffffffffffffffffffffffffffffffffffffffffffffffa0600195979a8495030186528951906040612f57612f4784516060855260608501906133c1565b97019201920188969594939192613550565b9193946020613a87827fffffffffffffffffffffffffffffffffffffffffffffffffffffffffffffff1c600195979a849503018652895161300a612fee612fdc612fcc845160c080885287019061335a565b9701920192018795949391926134f3565b6040517fc8c423320000000000000000000000000000000000000000000000000000000081527fffffffffffffffffffffffffffffffff00000000000000000000000000000000918216600482015291166024820152604490fd5b6040908151613b01816118d8565b80926008918254613b11816119d2565b92613b1e81519485611910565b81845260008581526020949092837ff3f7a9fe364faab93b216da50a3214154f22a0a2b415b23a84c8169e8b636ee38784015b8383106142da57505050508352838151918296879383600954918281520192600987527f6e1540171b6c0c960b71a7020d9f60077f6af931a8bbf590da0223dacf75c7af96905b82601f83011061405e578590613cb5985494848410614042575b848410614023575b50838310614004575b838310613fe5575b838310613fc7575b838310613fa8575b838310613f89575b838310613f6a575b838310613f4d575b50828210613f30575b828210613f13575b828210613ef6575b828210613ed9575b828210613ebc575b828210613e9f575b828210613e82575b828210613e65575b828210613e48575b828210613e2b575b828210613e0e575b828210613df1575b828210613dd4575b828210613db7575b828210613d9a575b828210613d7d575b828210613d60575b828210613d43575b828210613d26575b828210613d09575b828210613cec575b828210613ccf575b5010613cb9575b5090500384611910565b0152565b81613cc69160f81c6133fb565b01849038613cab565b84613ce36001939660ff8760f01c166133fb565b01930184613ca4565b84613d006001939660ff8760e81c166133fb565b01930184613c9c565b84613d1d6001939660ff8760e01c166133fb565b01930184613c94565b84613d3a6001939660ff8760d81c166133fb565b01930184613c8c565b84613d576001939660ff8760d01c166133fb565b01930184613c84565b84613d746001939660ff8760c81c166133fb565b01930184613c7c565b84613d916001939660ff8760c01c166133fb565b01930184613c74565b84613dae6001939660ff8760b81c166133fb565b01930184613c6c565b84613dcb6001939660ff8760b01c166133fb565b01930184613c64565b84613de86001939660ff8760a81c166133fb565b01930184613c5c565b84613e056001939660ff8760a01c166133fb565b01930184613c54565b84613e226001939660ff8760981c166133fb565b01930184613c4c565b84613e3f6001939660ff8760901c166133fb565b01930184613c44565b84613e5c6001939660ff8760881c166133fb565b01930184613c3c565b84613e796001939660ff8760801c166133fb565b01930184613c34565b84613e966001939660ff8760781c166133fb565b01930184613c2c565b84613eb36001939660ff8760701c166133fb565b01930184613c24565b84613ed06001939660ff8760681c166133fb565b01930184613c1c565b84613eed6001939660ff8760601c166133fb565b01930184613c14565b84613f0a6001939660ff8760581c166133fb565b01930184613c0c565b84613f276001939660ff8760501c166133fb565b01930184613c04565b84613f446001939660ff8760481c166133fb565b01930184613bfc565b94613f608160ff87600196991c166133fb565b0193018438613bf3565b91948181613f8060019360ff8960381c166133fb565b01950191613beb565b91948181613f9f60019360ff8960301c166133fb565b01950191613be3565b91948181613fbe60019360ff8960281c166133fb565b01950191613bdb565b91948181613fdc60019360ff89851c166133fb565b01950191613bd3565b91948181613ffb60019360ff8960181c166133fb565b01950191613bcb565b9194818161401a60019360ff8960101c166133fb565b01950191613bc3565b86614038600193959860ff8987951c166133fb565b0195019138613bba565b9295828161405560019360ff8a166133fb565b01960192613bb2565b92955092610400816142c76140a96142b98a61429661412561424e8f6142068f9c9f9b6141be8f939d60019e549a8b9961409c8560ff809d166133fb565b8a8d848701921c166133fb565b6140ba8584018a8d60101c166133fb565b888b6102006060956140d3878201858560181c166133fb565b6140e66080958585888501921c166133fb565b61417c60a0976140fd898401878760281c166133fb565b61413460c09b6141148d8601898960301c166133fb565b60e09e8f8601898960381c166133fb565b87876101008701921c166133fb565b6141476101208401878760481c166133fb565b61415a6101408401878760501c166133fb565b61416d6101608401878760581c166133fb565b85856101808501921c166133fb565b61418f6101a08201858560681c166133fb565b6141a26101c08201858560701c166133fb565b6141b56101e08201858560781c166133fb565b01921c166133fb565b6141d16102208c01888b60881c166133fb565b6141e46102408c01888b60901c166133fb565b6141f76102608c01888b60981c166133fb565b86896102808d01921c166133fb565b6142196102a08a01868960a81c166133fb565b61422c6102c08a01868960b01c166133fb565b61423f6102e08a01868960b81c166133fb565b84876103008b01921c166133fb565b6142616103208801848760c81c166133fb565b6142746103408801848760d01c166133fb565b6142876103608801848760d81c166133fb565b82856103808901921c166133fb565b6142a96103a08601828560e81c166133fb565b6103c08501908360f01c166133fb565b6103e083019060f81c6133fb565b0196019201928793899592969396613b98565b859699955160608082019067ffffffffffffffff838310818411176144e75760e08401838110828211176144ba578b52855460ff93600592918581168481101561448a579160028f8f969461435761435e928b8f93978e9c9a98885260809b1c1615158a8c0152600183015460a0809c015251809481930161207e565b0382611910565b60c089015287528d519485019081118582101761445b578f908e5260038901547fffffffffffffffffffffffffffffffff00000000000000000000000000000000908181871b16875216908501526004948589015416600795868210156144275750948f959460068f958f99968c6143f6826143579960019f9c996144119a6143fd968a01528401549088015251809581930161207e565b0383611910565b820152868501528d51928380928b0161207e565b8b82015281520192019201919098959498613b51565b9150508f925060249350602191507f4e487b7100000000000000000000000000000000000000000000000000000000835252fd5b505060248f7f4e487b710000000000000000000000000000000000000000000000000000000081526041600452fd5b50505060248f7f4e487b710000000000000000000000000000000000000000000000000000000081526021600452fd5b60248f7f4e487b710000000000000000000000000000000000000000000000000000000081526041600452fd5b60248e7f4e487b710000000000000000000000000000000000000000000000000000000081526041600452fd5b8051156145215760200190565b7f4e487b7100000000000000000000000000000000000000000000000000000000600052603260045260246000fd5b908160209103126101d7575173ffffffffffffffffffffffffffffffffffffffff811681036101d75790565b1561458357565b60646040517f08c379a000000000000000000000000000000000000000000000000000000000815260206004820152601c60248201527f4552433732313a20746f6b656e20616c7265616479206d696e746564000000006044820152fdfea2646970667358221220caedf233f5a8b0300b4a16c7ebd99c849096cbb2fc17bf8dc8216c3c8f8064c764736f6c63430008110033290decd9548b62a8d60345a988386fc84ba6bc95484008f6362f93160ef3e563f3f7a9fe364faab93b216da50a3214154f22a0a2b415b23a84c8169e8b636ee3228a3ac0675af69daeaaa5b8d369fe2faae665e7f340f0b78ccbb84e17b4f694",
    "linkReferences": {
      "src/libs/utils/AuthRequestLib.sol": {
        "AuthRequestLib": [
          {
            "start": 671,
            "length": 20
          }
        ]
      },
      "src/libs/utils/ClaimRequestLib.sol": {
        "ClaimRequestLib": [
          {
            "start": 604,
            "length": 20
          }
        ]
      },
      "src/libs/utils/ZkConnectRequestContentLib.sol": {
        "ZkConnectRequestContentLib": [
          {
            "start": 906,
            "length": 20
          }
        ]
      }
    }
  },
  "methodIdentifiers": {
    "ADDRESSES_PROVIDER()": "0542975c",
    "ZK_CONNECT_LIB_VERSION()": "86e01f78",
    "appId()": "80afdea8",
    "approve(address,uint256)": "095ea7b3",
    "balanceOf(address)": "70a08231",
    "claimWithZkConnect(bytes)": "d3b12a37",
    "getApproved(uint256)": "081812fc",
    "getZkConnectVersion()": "ef19bc46",
    "isApprovedForAll(address,address)": "e985e9c5",
    "name()": "06fdde03",
    "ownerOf(uint256)": "6352211e",
    "safeTransferFrom(address,address,uint256)": "42842e0e",
    "safeTransferFrom(address,address,uint256,bytes)": "b88d4fde",
    "setApprovalForAll(address,bool)": "a22cb465",
    "supportsInterface(bytes4)": "01ffc9a7",
    "symbol()": "95d89b41",
    "tokenURI(uint256)": "c87b56dd",
    "transferFrom(address,address,uint256)": "23b872dd",
    "transferWithZkConnect(bytes)": "5f64d5f4",
    "verify((bytes16,bytes16,bytes32,((bytes16,bytes16,uint8,uint256,bytes),(uint8,bool,uint256,bytes),bytes,bytes32,bytes,bytes)[]),(((uint8,bool,uint256,bytes),(bytes16,bytes16,uint8,uint256,bytes),bytes)[],uint8[]),bytes16)": "8407c1d6",
    "verify(bytes)": "8e760afe",
    "verify(bytes,(((uint8,bool,uint256,bytes),(bytes16,bytes16,uint8,uint256,bytes),bytes)[],uint8[]))": "790fb2df",
    "verify(bytes,(((uint8,bool,uint256,bytes),(bytes16,bytes16,uint8,uint256,bytes),bytes)[],uint8[]),bytes16)": "deff7b52"
  },
  "id": 37
}